{
  "_format": "hh-sol-artifact-1",
  "contractName": "TokenStaking",
  "sourceName": "contracts/TokenStaking.sol",
  "abi": [
    {
      "anonymous": false,
      "inputs": [
        {
          "indexed": true,
          "internalType": "address",
          "name": "user",
          "type": "address"
        },
        {
          "indexed": false,
          "internalType": "uint256",
          "name": "amount",
          "type": "uint256"
        }
      ],
      "name": "ClaimReward",
      "type": "event"
    },
    {
      "anonymous": false,
      "inputs": [
        {
          "indexed": true,
          "internalType": "address",
          "name": "user",
          "type": "address"
        },
        {
          "indexed": false,
          "internalType": "uint256",
          "name": "amount",
          "type": "uint256"
        }
      ],
      "name": "EarlyUnstakeFee",
      "type": "event"
    },
    {
      "anonymous": false,
      "inputs": [
        {
          "indexed": false,
          "internalType": "uint8",
          "name": "version",
          "type": "uint8"
        }
      ],
      "name": "Initialized",
      "type": "event"
    },
    {
      "anonymous": false,
      "inputs": [
        {
          "indexed": true,
          "internalType": "address",
          "name": "previousOwner",
          "type": "address"
        },
        {
          "indexed": true,
          "internalType": "address",
          "name": "newOwner",
          "type": "address"
        }
      ],
      "name": "OwnershipTransferred",
      "type": "event"
    },
    {
      "anonymous": false,
      "inputs": [
        {
          "indexed": true,
          "internalType": "address",
          "name": "user",
          "type": "address"
        },
        {
          "indexed": false,
          "internalType": "uint256",
          "name": "amount",
          "type": "uint256"
        }
      ],
      "name": "Stake",
      "type": "event"
    },
    {
      "anonymous": false,
      "inputs": [
        {
          "indexed": true,
          "internalType": "address",
          "name": "user",
          "type": "address"
        },
        {
          "indexed": false,
          "internalType": "uint256",
          "name": "amount",
          "type": "uint256"
        }
      ],
      "name": "UnStake",
      "type": "event"
    },
    {
      "inputs": [],
      "name": "APY_RATE_CHANGE_THRESHOLD",
      "outputs": [
        {
          "internalType": "uint256",
          "name": "",
          "type": "uint256"
        }
      ],
      "stateMutability": "view",
      "type": "function"
    },
    {
      "inputs": [],
      "name": "PERCENTAGE_DENOMINATION",
      "outputs": [
        {
          "internalType": "uint256",
          "name": "",
          "type": "uint256"
        }
      ],
      "stateMutability": "view",
      "type": "function"
    },
    {
      "inputs": [],
      "name": "claimRewards",
      "outputs": [],
      "stateMutability": "nonpayable",
      "type": "function"
    },
    {
      "inputs": [],
      "name": "getAPY",
      "outputs": [
        {
          "internalType": "uint256",
          "name": "",
          "type": "uint256"
        }
      ],
      "stateMutability": "view",
      "type": "function"
    },
    {
      "inputs": [],
      "name": "getEarlyUnstakeFeePercentage",
      "outputs": [
        {
          "internalType": "uint256",
          "name": "",
          "type": "uint256"
        }
      ],
      "stateMutability": "view",
      "type": "function"
    },
    {
      "inputs": [],
      "name": "getMaxStakingTokenLimit",
      "outputs": [
        {
          "internalType": "uint256",
          "name": "",
          "type": "uint256"
        }
      ],
      "stateMutability": "view",
      "type": "function"
    },
    {
      "inputs": [],
      "name": "getMinimumStakingAmount",
      "outputs": [
        {
          "internalType": "uint256",
          "name": "",
          "type": "uint256"
        }
      ],
      "stateMutability": "view",
      "type": "function"
    },
    {
      "inputs": [],
      "name": "getStakeDays",
      "outputs": [
        {
          "internalType": "uint256",
          "name": "",
          "type": "uint256"
        }
      ],
      "stateMutability": "view",
      "type": "function"
    },
    {
      "inputs": [],
      "name": "getStakeEndDate",
      "outputs": [
        {
          "internalType": "uint256",
          "name": "",
          "type": "uint256"
        }
      ],
      "stateMutability": "view",
      "type": "function"
    },
    {
      "inputs": [],
      "name": "getStakeStartDate",
      "outputs": [
        {
          "internalType": "uint256",
          "name": "",
          "type": "uint256"
        }
      ],
      "stateMutability": "view",
      "type": "function"
    },
    {
      "inputs": [],
      "name": "getStakingStatus",
      "outputs": [
        {
          "internalType": "bool",
          "name": "",
          "type": "bool"
        }
      ],
      "stateMutability": "view",
      "type": "function"
    },
    {
      "inputs": [],
      "name": "getTotalStakeTokens",
      "outputs": [
        {
          "internalType": "uint256",
          "name": "",
          "type": "uint256"
        }
      ],
      "stateMutability": "view",
      "type": "function"
    },
    {
      "inputs": [],
      "name": "getTotalUsers",
      "outputs": [
        {
          "internalType": "uint256",
          "name": "",
          "type": "uint256"
        }
      ],
      "stateMutability": "view",
      "type": "function"
    },
    {
      "inputs": [
        {
          "internalType": "address",
          "name": "userAddress",
          "type": "address"
        }
      ],
      "name": "getUser",
      "outputs": [
        {
          "components": [
            {
              "internalType": "uint256",
              "name": "stakeAmount",
              "type": "uint256"
            },
            {
              "internalType": "uint256",
              "name": "rewardAmount",
              "type": "uint256"
            },
            {
              "internalType": "uint256",
              "name": "lastStakeTime",
              "type": "uint256"
            },
            {
              "internalType": "uint256",
              "name": "lastRewardCalculationTime",
              "type": "uint256"
            },
            {
              "internalType": "uint256",
              "name": "rewardsClaimedSoFar",
              "type": "uint256"
            }
          ],
          "internalType": "struct TokenStaking.User",
          "name": "",
          "type": "tuple"
        }
      ],
      "stateMutability": "view",
      "type": "function"
    },
    {
      "inputs": [],
      "name": "getUserEstimatedRewards",
      "outputs": [
        {
          "internalType": "uint256",
          "name": "",
          "type": "uint256"
        }
      ],
      "stateMutability": "view",
      "type": "function"
    },
    {
      "inputs": [],
      "name": "getWithdrawableAmount",
      "outputs": [
        {
          "internalType": "uint256",
          "name": "",
          "type": "uint256"
        }
      ],
      "stateMutability": "view",
      "type": "function"
    },
    {
      "inputs": [
        {
          "internalType": "address",
          "name": "owner_",
          "type": "address"
        },
        {
          "internalType": "address",
          "name": "tokenAddress_",
          "type": "address"
        },
        {
          "internalType": "uint256",
          "name": "apyRate_",
          "type": "uint256"
        },
        {
          "internalType": "uint256",
          "name": "minimumStakingAmount_",
          "type": "uint256"
        },
        {
          "internalType": "uint256",
          "name": "maxStakingTokenLimit_",
          "type": "uint256"
        },
        {
          "internalType": "uint256",
          "name": "stakeStartDate_",
          "type": "uint256"
        },
        {
          "internalType": "uint256",
          "name": "stakeEndDate_",
          "type": "uint256"
        },
        {
          "internalType": "uint256",
          "name": "stakeDays_",
          "type": "uint256"
        },
        {
          "internalType": "uint256",
          "name": "earlyUnstakeFeePercentage_",
          "type": "uint256"
        }
      ],
      "name": "initialize",
      "outputs": [],
      "stateMutability": "nonpayable",
      "type": "function"
    },
    {
      "inputs": [
        {
          "internalType": "address",
          "name": "_user",
          "type": "address"
        }
      ],
      "name": "isStakeHolder",
      "outputs": [
        {
          "internalType": "bool",
          "name": "",
          "type": "bool"
        }
      ],
      "stateMutability": "view",
      "type": "function"
    },
    {
      "inputs": [],
      "name": "owner",
      "outputs": [
        {
          "internalType": "address",
          "name": "",
          "type": "address"
        }
      ],
      "stateMutability": "view",
      "type": "function"
    },
    {
      "inputs": [],
      "name": "renounceOwnership",
      "outputs": [],
      "stateMutability": "nonpayable",
      "type": "function"
    },
    {
      "inputs": [
        {
          "internalType": "uint256",
          "name": "amount",
          "type": "uint256"
        }
      ],
      "name": "stake",
      "outputs": [],
      "stateMutability": "nonpayable",
      "type": "function"
    },
    {
      "inputs": [
        {
          "internalType": "uint256",
          "name": "amount",
          "type": "uint256"
        },
        {
          "internalType": "address",
          "name": "user",
          "type": "address"
        }
      ],
      "name": "stakeForUser",
      "outputs": [],
      "stateMutability": "nonpayable",
      "type": "function"
    },
    {
      "inputs": [],
      "name": "toggleStakingStatus",
      "outputs": [],
      "stateMutability": "view",
      "type": "function"
    },
    {
      "inputs": [
        {
          "internalType": "address",
          "name": "newOwner",
          "type": "address"
        }
      ],
      "name": "transferOwnership",
      "outputs": [],
      "stateMutability": "nonpayable",
      "type": "function"
    },
    {
      "inputs": [
        {
          "internalType": "uint256",
          "name": "_amount",
          "type": "uint256"
        }
      ],
      "name": "unstake",
      "outputs": [],
      "stateMutability": "nonpayable",
      "type": "function"
    },
    {
      "inputs": [
        {
          "internalType": "uint256",
          "name": "newPercentage",
          "type": "uint256"
        }
      ],
      "name": "updateEarlyUnstakeFeePercentage",
      "outputs": [],
      "stateMutability": "nonpayable",
      "type": "function"
    },
    {
      "inputs": [
        {
          "internalType": "uint256",
          "name": "newAmount",
          "type": "uint256"
        }
      ],
      "name": "updateMaximumStakingAmount",
      "outputs": [],
      "stateMutability": "nonpayable",
      "type": "function"
    },
    {
      "inputs": [
        {
          "internalType": "uint256",
          "name": "newAmount",
          "type": "uint256"
        }
      ],
      "name": "updateMinimumStakingAmount",
      "outputs": [],
      "stateMutability": "nonpayable",
      "type": "function"
    },
    {
      "inputs": [
        {
          "internalType": "uint256",
          "name": "newDate",
          "type": "uint256"
        }
      ],
      "name": "updateStakingEndDate",
      "outputs": [],
      "stateMutability": "nonpayable",
      "type": "function"
    },
    {
      "inputs": [
        {
          "internalType": "uint256",
          "name": "amount",
          "type": "uint256"
        }
      ],
      "name": "withdraw",
      "outputs": [],
      "stateMutability": "nonpayable",
      "type": "function"
    }
  ],
  "bytecode": "0x608060405234801561001057600080fd5b5061001a33610023565b60018055610073565b600080546001600160a01b038381166001600160a01b0319831681178455604051919092169283917f8be0079c531659141344cd1fd0a4f28419497f9722a3daafe3b4186f6b6457e09190a35050565b61198b806100826000396000f3fe608060405234801561001057600080fd5b50600436106101d95760003560e01c80637bb9769d11610104578063bb8febc6116100a2578063f0116b7411610071578063f0116b74146103b9578063f18cce76146103c1578063f2fde38b146103c9578063fa39a146146103dc57600080fd5b8063bb8febc614610396578063c5d62b181461039e578063cab9b8fb146103a6578063d2cbf7ad146103b157600080fd5b80638da5cb5b116100de5780638da5cb5b1461035857806390be10cc146103735780639be572f61461037b578063a694fc3a1461038357600080fd5b80637bb9769d1461032a578063845738cb1461033d5780638585d1381461035057600080fd5b8063459ce65a1161017c578063635121591161014b578063635121591461027f5780636f77926b146102ba57806370607f5d1461030f578063715018a61461032257600080fd5b8063459ce65a146102535780634d55b1781461025c57806355f0fe42146102645780635e39cd751461027757600080fd5b80632e1a7d4d116101b85780632e1a7d4d1461021d578063372500ab146102305780633e0935721461023857806342a239451461024b57600080fd5b80628e3252146101de5780630c4ca4a6146101f55780632e17de781461020a575b600080fd5b6006545b6040519081526020015b60405180910390f35b61020861020336600461173f565b6103e4565b005b61020861021836600461173f565b6103f1565b61020861022b36600461173f565b61082b565b61020861098f565b61020861024636600461173f565b610be3565b6003546101e2565b6101e261271081565b6101e2610bf0565b61020861027236600461173f565b610c24565b600a546101e2565b6102aa61028d366004611774565b6001600160a01b03166000908152600d6020526040902054151590565b60405190151581526020016101ec565b6102cd6102c8366004611774565b610c31565b6040516101ec9190600060a082019050825182526020830151602083015260408301516040830152606083015160608301526080830151608083015292915050565b61020861031d366004611796565b610cbb565b610208610cf4565b61020861033836600461173f565b610d08565b61020861034b3660046117c2565b610d15565b6101e2600a81565b6000546040516001600160a01b0390911681526020016101ec565b6101e2610e21565b6008546101e2565b61020861039136600461173f565b610ea6565b6004546101e2565b610208610ede565b600b5460ff166102aa565b600c546101e2565b6005546101e2565b6009546101e2565b6102086103d7366004611774565b610ee6565b6007546101e2565b6103ec610f5f565b600455565b60026001540361041c5760405162461bcd60e51b815260040161041390611833565b60405180910390fd5b6002600155600b546040516370a0823160e01b8152306004820152829182916101009091046001600160a01b0316906370a0823190602401602060405180830381865afa158015610471573d6000803e3d6000fd5b505050506040513d601f19601f82011682018060405250810190610495919061185c565b10156104b35760405162461bcd60e51b815260040161041390611875565b3360008390036104fd5760405162461bcd60e51b8152602060048201526015602482015274496e73756666696369656e742062616c616e63652160581b6044820152606401610413565b604051636351215960e01b81526001600160a01b03821660048201523090636351215990602401602060405180830381865afa158015610541573d6000803e3d6000fd5b505050506040513d601f19601f8201168201806040525081019061056591906118b8565b6105a65760405162461bcd60e51b81526020600482015260126024820152714e6f742061205374616b65486f6c6465722160701b6044820152606401610413565b6001600160a01b0381166000908152600d602052604090205483111561060e5760405162461bcd60e51b815260206004820152601c60248201527f4e6f7420656e6f756768207374616b6520746f20756e7374616b6521000000006044820152606401610413565b61061781610fb9565b6009546001600160a01b0382166000908152600d60205260408120600201549091610641916118f0565b42116106a857612710600a54856106589190611909565b6106629190611920565b9050816001600160a01b03167f6655a65e3a454496b455f24f37ce8b67cf3ada0176112ac906fd6b71d3e6f9298260405161069f91815260200190565b60405180910390a25b60006106b48286611942565b6001600160a01b0384166000908152600d60205260408120805492935087929091906106e1908490611942565b90915550506001600160a01b0383166000908152600d6020526040812054900361071e576001600860008282546107189190611942565b90915550505b600b5460405163a9059cbb60e01b81526001600160a01b038581166004830152602482018490526101009092049091169063a9059cbb906044016020604051808303816000875af1158015610777573d6000803e3d6000fd5b505050506040513d601f19601f8201168201806040525081019061079b91906118b8565b6107dd5760405162461bcd60e51b81526020600482015260136024820152724661696c656420746f207472616e736665722160681b6044820152606401610413565b826001600160a01b03167fb24546d975e2628748efc9aced80665e0fad66272033e5c0ea25fd3afac997958660405161081891815260200190565b60405180910390a2505060018055505050565b610833610f5f565b6002600154036108555760405162461bcd60e51b815260040161041390611833565b600260018190555080306001600160a01b03166390be10cc6040518163ffffffff1660e01b8152600401602060405180830381865afa15801561089c573d6000803e3d6000fd5b505050506040513d601f19601f820116820180604052508101906108c0919061185c565b101561090e5760405162461bcd60e51b815260206004820152601e60248201527f4e6f7420656e6f75676820746f6b656e7320746f2077697468647261772100006044820152606401610413565b600b5460405163a9059cbb60e01b8152336004820152602481018390526101009091046001600160a01b03169063a9059cbb906044016020604051808303816000875af1158015610963573d6000803e3d6000fd5b505050506040513d601f19601f8201168201806040525081019061098791906118b8565b505060018055565b6002600154036109b15760405162461bcd60e51b815260040161041390611833565b60026001908155336000908152600d60205260409081902090910154600b5491516370a0823160e01b8152306004820152909182916101009091046001600160a01b0316906370a0823190602401602060405180830381865afa158015610a1c573d6000803e3d6000fd5b505050506040513d601f19601f82011682018060405250810190610a40919061185c565b1015610a5e5760405162461bcd60e51b815260040161041390611875565b610a6733610fb9565b336000908152600d602052604090206001015480610abd5760405162461bcd60e51b81526020600482015260136024820152724e6f2072657761726420746f20636c61696d2160681b6044820152606401610413565b600b5460405163a9059cbb60e01b8152336004820152602481018390526101009091046001600160a01b03169063a9059cbb906044016020604051808303816000875af1158015610b12573d6000803e3d6000fd5b505050506040513d601f19601f82011682018060405250810190610b3691906118b8565b610b785760405162461bcd60e51b81526020600482015260136024820152724661696c656420746f207472616e736665722160681b6044820152606401610413565b336000908152600d60205260408120600181018290556004018054839290610ba19084906118f0565b909155505060405181815233907fba8de60c3403ec381d1d484652ea1980e3c3e56359195c92525bff4ce47ad98e9060200160405180910390a2505060018055565b610beb610f5f565b600555565b600080610bfc3361101d565b50336000908152600d6020526040902060010154909150610c1e9082906118f0565b91505090565b610c2c610f5f565b600355565b610c636040518060a0016040528060008152602001600081526020016000815260200160008152602001600081525090565b506001600160a01b03166000908152600d6020908152604091829020825160a0810184528154815260018201549281019290925260028101549282019290925260038201546060820152600490910154608082015290565b610cc3610f5f565b600260015403610ce55760405162461bcd60e51b815260040161041390611833565b600260015561098782826110fb565b610cfc610f5f565b610d0660006114d0565b565b610d10610f5f565b600a55565b600254610100900460ff1615808015610d355750600254600160ff909116105b80610d4f5750303b158015610d4f575060025460ff166001145b610d9b5760405162461bcd60e51b815260206004820181905260248201527f436f6e747261637420697320616c726561647920696e697469616c697a6564216044820152606401610413565b6002805460ff191660011790558015610dbe576002805461ff0019166101001790555b610dcf8a8a8a8a8a8a8a8a8a611520565b8015610e15576002805461ff0019169055604051600181527f7f26b83ff96e1f2b6a682f133852f6798a09c465da95921460cefb38474024989060200160405180910390a15b50505050505050505050565b600754600b546040516370a0823160e01b81523060048201526000929161010090046001600160a01b0316906370a0823190602401602060405180830381865afa158015610e73573d6000803e3d6000fd5b505050506040513d601f19601f82011682018060405250810190610e97919061185c565b610ea19190611942565b905090565b600260015403610ec85760405162461bcd60e51b815260040161041390611833565b6002600155610ed781336110fb565b5060018055565b610d06610f5f565b610eee610f5f565b6001600160a01b038116610f535760405162461bcd60e51b815260206004820152602660248201527f4f776e61626c653a206e6577206f776e657220697320746865207a65726f206160448201526564647265737360d01b6064820152608401610413565b610f5c816114d0565b50565b6000546001600160a01b03163314610d065760405162461bcd60e51b815260206004820152601860248201527f43616c6c6572206973206e6f7420746865206f776e65722100000000000000006044820152606401610413565b600080610fc58361101d565b6001600160a01b0385166000908152600d6020526040812060010180549395509193508492610ff59084906118f0565b90915550506001600160a01b039092166000908152600d602052604090206003019190915550565b6001600160a01b0381166000908152600d60205260408120600381015460095460029092015483928392914291611053916118f0565b811115611086576009546001600160a01b0387166000908152600d602052604090206002015461108391906118f0565b90505b60006110928383611942565b600c546001600160a01b0389166000908152600d6020526040902054919250612710916301e1338091906110c69085611909565b6110d09190611909565b6110da9190611920565b6110e49190611920565b6110ee90856118f0565b9791965090945050505050565b600b5460ff16156111435760405162461bcd60e51b81526020600482015260126024820152715374616b696e67206973205061757365642160701b6044820152606401610413565b600654429081116111965760405162461bcd60e51b815260206004820152601860248201527f5374616b696e67206e6f742073746172746564207965742100000000000000006044820152606401610413565b60055481106111d85760405162461bcd60e51b815260206004820152600e60248201526d5374616b696e6720656e6465642160901b6044820152606401610413565b600454836007546111e991906118f0565b11156112375760405162461bcd60e51b815260206004820181905260248201527f6d6178207374616b696e6720746f6b656e206c696d69742072656163686564216044820152606401610413565b600083116112875760405162461bcd60e51b815260206004820152601e60248201527f7374616b6520616d6f756e74206d757374206265206e6f6e2d7a65726f2100006044820152606401610413565b6003548310156112f85760405162461bcd60e51b815260206004820152603660248201527f5374616b6520616d6f756e74206d7573742067726561746572207468616e206d604482015275696e696d756d20616d6f756e7420616c6c6f7765642160501b6064820152608401610413565b6001600160a01b0382166000908152600d6020526040902054156113245761131f82610fb9565b61135b565b6001600160a01b0382166000908152600d6020526040812060030182905560088054600192906113559084906118f0565b90915550505b6001600160a01b0382166000908152600d6020526040812080548592906113839084906118f0565b90915550506001600160a01b0382166000908152600d60205260408120600201829055600780548592906113b89084906118f0565b9091555050600b546040516323b872dd60e01b8152336004820152306024820152604481018590526101009091046001600160a01b0316906323b872dd906064016020604051808303816000875af1158015611418573d6000803e3d6000fd5b505050506040513d601f19601f8201168201806040525081019061143c91906118b8565b6114885760405162461bcd60e51b815260206004820152601a60248201527f4661696c656420746f207472616e7366657220546f6b656e73210000000000006044820152606401610413565b816001600160a01b03167febedb8b3c678666e7f36970bc8f57abf6d8fa2e828c0da91ea5b75bf68ed101a846040516114c391815260200190565b60405180910390a2505050565b600080546001600160a01b038381166001600160a01b0319831681178455604051919092169283917f8be0079c531659141344cd1fd0a4f28419497f9722a3daafe3b4186f6b6457e09190a35050565b600254610100900460ff1661158c5760405162461bcd60e51b815260206004820152602c60248201527f496e697469616c697a61626c653a20636f6e7472616374206973206e6f74206960448201526b6e697469616c697a696e672160a01b6064820152608401610413565b612710600c5411156115ec5760405162461bcd60e51b815260206004820152602360248201527f41505920726174652073686f756c64206265206c657373207468616e2031303060448201526230302160e81b6064820152608401610413565b6000821161162d5760405162461bcd60e51b815260206004820152600e60248201526d4e6f205374616b6520446179732160901b6044820152606401610413565b6001600160a01b0388166116835760405162461bcd60e51b815260206004820152601960248201527f546f6b656e206164647265737320697320496e76616c696421000000000000006044820152606401610413565b8284106116e05760405162461bcd60e51b815260206004820152602560248201527f53746172742064617465206d757374206d65207072696f7220746f20656e6420604482015264646174652160d81b6064820152608401610413565b6116e9896114d0565b600b8054610100600160a81b0319166101006001600160a01b038b1602179055600c879055600386905560048590556006849055600583905561172f8262015180611909565b600955600a555050505050505050565b60006020828403121561175157600080fd5b5035919050565b80356001600160a01b038116811461176f57600080fd5b919050565b60006020828403121561178657600080fd5b61178f82611758565b9392505050565b600080604083850312156117a957600080fd5b823591506117b960208401611758565b90509250929050565b60008060008060008060008060006101208a8c0312156117e157600080fd5b6117ea8a611758565b98506117f860208b01611758565b989b989a505050506040870135966060810135966080820135965060a0820135955060c0820135945060e08201359350610100909101359150565b6020808252600f908201526e5265656e7472616e742063616c6c2160881b604082015260600190565b60006020828403121561186e57600080fd5b5051919050565b60208082526023908201527f496e73756666696369656e742066756e647320696e207468652074726561737560408201526272792160e81b606082015260800190565b6000602082840312156118ca57600080fd5b8151801515811461178f57600080fd5b634e487b7160e01b600052601160045260246000fd5b80820180821115611903576119036118da565b92915050565b8082028115828204841417611903576119036118da565b60008261193d57634e487b7160e01b600052601260045260246000fd5b500490565b81810381811115611903576119036118da56fea2646970667358221220062238a89776b35f8b2e902f04015cde17a7f4f3817b92f001ccca52eef05bd964736f6c63430008180033",
  "linkReferences": {},
  "deployedLinkReferences": {}
}