{
  "_format": "hh-sol-artifact-1",
  "contractName": "Token",
  "sourceName": "contracts/Token.sol",
  "abi": [
    {
      "inputs": [],
      "stateMutability": "nonpayable",
      "type": "constructor"
    },
    {
      "anonymous": false,
      "inputs": [
        {
          "indexed": true,
          "internalType": "address",
          "name": "_owner",
          "type": "address"
        },
        {
          "indexed": true,
          "internalType": "address",
          "name": "_sender",
          "type": "address"
        },
        {
          "indexed": false,
          "internalType": "uint256",
          "name": "_value",
          "type": "uint256"
        }
      ],
      "name": "Approval",
      "type": "event"
    },
    {
      "anonymous": false,
      "inputs": [
        {
          "indexed": true,
          "internalType": "address",
          "name": "_from",
          "type": "address"
        },
        {
          "indexed": true,
          "internalType": "address",
          "name": "_to",
          "type": "address"
        },
        {
          "indexed": false,
          "internalType": "uint256",
          "name": "_value",
          "type": "uint256"
        }
      ],
      "name": "Transfer",
      "type": "event"
    },
    {
      "inputs": [],
      "name": "_userId",
      "outputs": [
        {
          "internalType": "uint256",
          "name": "",
          "type": "uint256"
        }
      ],
      "stateMutability": "view",
      "type": "function"
    },
    {
      "inputs": [
        {
          "internalType": "address",
          "name": "",
          "type": "address"
        },
        {
          "internalType": "address",
          "name": "",
          "type": "address"
        }
      ],
      "name": "allowance",
      "outputs": [
        {
          "internalType": "uint256",
          "name": "",
          "type": "uint256"
        }
      ],
      "stateMutability": "view",
      "type": "function"
    },
    {
      "inputs": [
        {
          "internalType": "address",
          "name": "_sender",
          "type": "address"
        },
        {
          "internalType": "uint256",
          "name": "_value",
          "type": "uint256"
        }
      ],
      "name": "approve",
      "outputs": [
        {
          "internalType": "bool",
          "name": "",
          "type": "bool"
        }
      ],
      "stateMutability": "nonpayable",
      "type": "function"
    },
    {
      "inputs": [
        {
          "internalType": "address",
          "name": "",
          "type": "address"
        }
      ],
      "name": "balanceOf",
      "outputs": [
        {
          "internalType": "uint256",
          "name": "",
          "type": "uint256"
        }
      ],
      "stateMutability": "view",
      "type": "function"
    },
    {
      "inputs": [],
      "name": "getTokenHolder",
      "outputs": [
        {
          "internalType": "address[]",
          "name": "",
          "type": "address[]"
        }
      ],
      "stateMutability": "view",
      "type": "function"
    },
    {
      "inputs": [
        {
          "internalType": "address",
          "name": "_address",
          "type": "address"
        }
      ],
      "name": "getTokenHolderData",
      "outputs": [
        {
          "internalType": "uint256",
          "name": "",
          "type": "uint256"
        },
        {
          "internalType": "address",
          "name": "",
          "type": "address"
        },
        {
          "internalType": "address",
          "name": "",
          "type": "address"
        },
        {
          "internalType": "uint256",
          "name": "",
          "type": "uint256"
        },
        {
          "internalType": "bool",
          "name": "",
          "type": "bool"
        }
      ],
      "stateMutability": "view",
      "type": "function"
    },
    {
      "inputs": [],
      "name": "name",
      "outputs": [
        {
          "internalType": "string",
          "name": "",
          "type": "string"
        }
      ],
      "stateMutability": "view",
      "type": "function"
    },
    {
      "inputs": [],
      "name": "ownerOfContract",
      "outputs": [
        {
          "internalType": "address",
          "name": "",
          "type": "address"
        }
      ],
      "stateMutability": "view",
      "type": "function"
    },
    {
      "inputs": [],
      "name": "standard",
      "outputs": [
        {
          "internalType": "string",
          "name": "",
          "type": "string"
        }
      ],
      "stateMutability": "view",
      "type": "function"
    },
    {
      "inputs": [],
      "name": "symbol",
      "outputs": [
        {
          "internalType": "string",
          "name": "",
          "type": "string"
        }
      ],
      "stateMutability": "view",
      "type": "function"
    },
    {
      "inputs": [
        {
          "internalType": "uint256",
          "name": "",
          "type": "uint256"
        }
      ],
      "name": "tokenHolder",
      "outputs": [
        {
          "internalType": "address",
          "name": "",
          "type": "address"
        }
      ],
      "stateMutability": "view",
      "type": "function"
    },
    {
      "inputs": [
        {
          "internalType": "address",
          "name": "",
          "type": "address"
        }
      ],
      "name": "tokenHolderInfos",
      "outputs": [
        {
          "internalType": "uint256",
          "name": "_tokenId",
          "type": "uint256"
        },
        {
          "internalType": "address",
          "name": "_from",
          "type": "address"
        },
        {
          "internalType": "address",
          "name": "_to",
          "type": "address"
        },
        {
          "internalType": "uint256",
          "name": "_totalToken",
          "type": "uint256"
        },
        {
          "internalType": "bool",
          "name": "_tokenHolder",
          "type": "bool"
        }
      ],
      "stateMutability": "view",
      "type": "function"
    },
    {
      "inputs": [],
      "name": "totalSupply",
      "outputs": [
        {
          "internalType": "uint256",
          "name": "",
          "type": "uint256"
        }
      ],
      "stateMutability": "view",
      "type": "function"
    },
    {
      "inputs": [
        {
          "internalType": "address",
          "name": "_to",
          "type": "address"
        },
        {
          "internalType": "uint256",
          "name": "_value",
          "type": "uint256"
        }
      ],
      "name": "transfer",
      "outputs": [
        {
          "internalType": "bool",
          "name": "",
          "type": "bool"
        }
      ],
      "stateMutability": "nonpayable",
      "type": "function"
    },
    {
      "inputs": [
        {
          "internalType": "address",
          "name": "_from",
          "type": "address"
        },
        {
          "internalType": "address",
          "name": "_to",
          "type": "address"
        },
        {
          "internalType": "uint256",
          "name": "_value",
          "type": "uint256"
        }
      ],
      "name": "transferFrom",
      "outputs": [
        {
          "internalType": "bool",
          "name": "success",
          "type": "bool"
        }
      ],
      "stateMutability": "nonpayable",
      "type": "function"
    }
  ],
  "bytecode": "0x60c0604052600860809081526739b434b731b430b760c11b60a05260009062000029908262000179565b5060408051808201909152600381526229a42760e91b602082015260019062000053908262000179565b5060408051808201909152600e81526d7368696e6368616e20762e302e3160901b602082015260029062000088908262000179565b503480156200009657600080fd5b50600480546001600160a01b03191633908117909155600090815260086020526040902069d3c21bcecceda10000009081905560035562000245565b634e487b7160e01b600052604160045260246000fd5b600181811c90821680620000fd57607f821691505b6020821081036200011e57634e487b7160e01b600052602260045260246000fd5b50919050565b601f82111562000174576000816000526020600020601f850160051c810160208610156200014f5750805b601f850160051c820191505b8181101562000170578281556001016200015b565b5050505b505050565b81516001600160401b03811115620001955762000195620000d2565b620001ad81620001a68454620000e8565b8462000124565b602080601f831160018114620001e55760008415620001cc5750858301515b600019600386901b1c1916600185901b17855562000170565b600085815260208120601f198616915b828110156200021657888601518255948401946001909101908401620001f5565b5085821015620002355787850151600019600388901b60f8161c191681555b5050505050600190811b01905550565b610a0580620002556000396000f3fe608060405234801561001057600080fd5b50600436106100f55760003560e01c806370a0823111610097578063a9059cbb11610066578063a9059cbb146102a2578063ba8e3557146102b5578063bc4530e7146102ca578063dd62ed3e146102d357600080fd5b806370a082311461021a57806382b682631461023a578063862a4bf21461028757806395d89b411461029a57600080fd5b806323b872dd116100d357806323b872dd1461015257806329cc66ed14610165578063468229ae146101e75780635a3b7e421461021257600080fd5b806306fdde03146100fa578063095ea7b31461011857806318160ddd1461013b575b600080fd5b6101026102fe565b60405161010f91906107b4565b60405180910390f35b61012b61012636600461081f565b61038c565b604051901515815260200161010f565b61014460035481565b60405190815260200161010f565b61012b610160366004610849565b6103f9565b6101b1610173366004610885565b6007602052600090815260409020805460018201546002830154600384015460049094015492936001600160a01b0392831693929091169160ff1685565b604080519586526001600160a01b039485166020870152929093169184019190915260608301521515608082015260a00161010f565b6004546101fa906001600160a01b031681565b6040516001600160a01b03909116815260200161010f565b610102610578565b610144610228366004610885565b60086020526000908152604090205481565b6101b1610248366004610885565b6001600160a01b039081166000908152600760205260409020805460028201546001830154600384015460049094015492959185169416929160ff1690565b6101fa6102953660046108a7565b610585565b6101026105af565b61012b6102b036600461081f565b6105bc565b6102bd61073b565b60405161010f91906108c0565b61014460055481565b6101446102e136600461090d565b600960209081526000928352604080842090915290825290205481565b6000805461030b90610940565b80601f016020809104026020016040519081016040528092919081815260200182805461033790610940565b80156103845780601f1061035957610100808354040283529160200191610384565b820191906000526020600020905b81548152906001019060200180831161036757829003601f168201915b505050505081565b3360008181526009602090815260408083206001600160a01b038716808552925280832085905551919290917f8c5be1e5ebec7d5bd14f71427d1e84f3dd0314c0f7b2291e5b200ac8c7c3b925906103e79086815260200190565b60405180910390a35060015b92915050565b6001600160a01b03831660009081526008602052604081205482111561045d5760405162461bcd60e51b8152602060048201526014602482015273496e73756666696369656e742062616c616e636560601b60448201526064015b60405180910390fd5b6001600160a01b038416600090815260096020908152604080832033845290915290205482111561048d57600080fd5b6001600160a01b038416600090815260086020526040812080548492906104b5908490610990565b90915550506001600160a01b038316600090815260086020526040812080548492906104e29084906109a3565b90915550506001600160a01b03841660009081526009602090815260408083203384529091528120805484929061051a908490610990565b92505081905550826001600160a01b0316846001600160a01b03167fddf252ad1be2c89b69c2b068fc378daa952ba7f163c4a11628f55a4df523b3ef8460405161056691815260200190565b60405180910390a35060019392505050565b6002805461030b90610940565b6006818154811061059557600080fd5b6000918252602090912001546001600160a01b0316905081565b6001805461030b90610940565b336000908152600860205260408120548211156106115760405162461bcd60e51b8152602060048201526013602482015272496e7375666669656e742062616c616e63652160681b6044820152606401610454565b61061961079d565b3360009081526008602052604081208054849290610638908490610990565b90915550506001600160a01b038316600090815260086020526040812080548492906106659084906109a3565b90915550506001600160a01b03831660008181526007602090815260408083206002810180546001600160a01b0319908116871790915560018083018054339084168117909155600384018a905560048401805460ff19168317905560055484556006805492830181559096527ff652222313e28459528d920b65115c16c04f3efc82aaedc97be59f3f377c0d3f018054909116861790559051868152909392917fddf252ad1be2c89b69c2b068fc378daa952ba7f163c4a11628f55a4df523b3ef910160405180910390a35060019392505050565b6060600680548060200260200160405190810160405280929190818152602001828054801561079357602002820191906000526020600020905b81546001600160a01b03168152600190910190602001808311610775575b5050505050905090565b600580549060006107ad836109b6565b9190505550565b60006020808352835180602085015260005b818110156107e2578581018301518582016040015282016107c6565b506000604082860101526040601f19601f8301168501019250505092915050565b80356001600160a01b038116811461081a57600080fd5b919050565b6000806040838503121561083257600080fd5b61083b83610803565b946020939093013593505050565b60008060006060848603121561085e57600080fd5b61086784610803565b925061087560208501610803565b9150604084013590509250925092565b60006020828403121561089757600080fd5b6108a082610803565b9392505050565b6000602082840312156108b957600080fd5b5035919050565b6020808252825182820181905260009190848201906040850190845b818110156109015783516001600160a01b0316835292840192918401916001016108dc565b50909695505050505050565b6000806040838503121561092057600080fd5b61092983610803565b915061093760208401610803565b90509250929050565b600181811c9082168061095457607f821691505b60208210810361097457634e487b7160e01b600052602260045260246000fd5b50919050565b634e487b7160e01b600052601160045260246000fd5b818103818111156103f3576103f361097a565b808201808211156103f3576103f361097a565b6000600182016109c8576109c861097a565b506001019056fea2646970667358221220ae2f140a223c60fabd1de3eff4a630a915e3ded9b1fccbf30fe985f4a065aedb64736f6c63430008180033",
  "linkReferences": {},
  "deployedLinkReferences": {}
}